{
  "address": "0x5cFC8DFB6273605C1e9f273DDB7Cf4450Cbac108",
  "abi": [
    {
      "anonymous": false,
      "inputs": [
        {
          "components": [
            {
              "internalType": "uint256",
              "name": "id",
              "type": "uint256"
            },
            {
              "internalType": "string",
              "name": "name",
              "type": "string"
            },
            {
              "internalType": "string",
              "name": "image",
              "type": "string"
            },
            {
              "components": [
                {
                  "internalType": "string",
                  "name": "name",
                  "type": "string"
                },
                {
                  "internalType": "string",
                  "name": "description",
                  "type": "string"
                }
              ],
              "internalType": "struct PokemonFactory.Ability[]",
              "name": "abilities",
              "type": "tuple[]"
            },
            {
              "internalType": "string[]",
              "name": "types",
              "type": "string[]"
            },
            {
              "internalType": "string[]",
              "name": "weaknesses",
              "type": "string[]"
            }
          ],
          "indexed": true,
          "internalType": "struct PokemonFactory.Pokemon",
          "name": "eventNewPokemon",
          "type": "tuple"
        }
      ],
      "name": "eventNewPokemon",
      "type": "event"
    },
    {
      "inputs": [
        {
          "internalType": "uint256",
          "name": "_id",
          "type": "uint256"
        },
        {
          "internalType": "string",
          "name": "_name",
          "type": "string"
        },
        {
          "internalType": "string",
          "name": "_image",
          "type": "string"
        },
        {
          "internalType": "string[]",
          "name": "_namesAbility",
          "type": "string[]"
        },
        {
          "internalType": "string[]",
          "name": "_descripsAbility",
          "type": "string[]"
        },
        {
          "internalType": "string[]",
          "name": "_types_name",
          "type": "string[]"
        }
      ],
      "name": "createPokemon",
      "outputs": [],
      "stateMutability": "nonpayable",
      "type": "function"
    },
    {
      "inputs": [
        {
          "internalType": "string",
          "name": "_type",
          "type": "string"
        },
        {
          "internalType": "string[]",
          "name": "_weaknesses",
          "type": "string[]"
        }
      ],
      "name": "createTypesToWeaknesses",
      "outputs": [],
      "stateMutability": "nonpayable",
      "type": "function"
    },
    {
      "inputs": [],
      "name": "getAllPokemons",
      "outputs": [
        {
          "components": [
            {
              "internalType": "uint256",
              "name": "id",
              "type": "uint256"
            },
            {
              "internalType": "string",
              "name": "name",
              "type": "string"
            },
            {
              "internalType": "string",
              "name": "image",
              "type": "string"
            },
            {
              "components": [
                {
                  "internalType": "string",
                  "name": "name",
                  "type": "string"
                },
                {
                  "internalType": "string",
                  "name": "description",
                  "type": "string"
                }
              ],
              "internalType": "struct PokemonFactory.Ability[]",
              "name": "abilities",
              "type": "tuple[]"
            },
            {
              "internalType": "string[]",
              "name": "types",
              "type": "string[]"
            },
            {
              "internalType": "string[]",
              "name": "weaknesses",
              "type": "string[]"
            }
          ],
          "internalType": "struct PokemonFactory.Pokemon[]",
          "name": "",
          "type": "tuple[]"
        }
      ],
      "stateMutability": "view",
      "type": "function"
    },
    {
      "inputs": [],
      "name": "getAllTypes",
      "outputs": [
        {
          "internalType": "string[]",
          "name": "",
          "type": "string[]"
        }
      ],
      "stateMutability": "view",
      "type": "function"
    },
    {
      "inputs": [],
      "name": "getMyPokemons",
      "outputs": [
        {
          "components": [
            {
              "internalType": "uint256",
              "name": "id",
              "type": "uint256"
            },
            {
              "internalType": "string",
              "name": "name",
              "type": "string"
            },
            {
              "internalType": "string",
              "name": "image",
              "type": "string"
            },
            {
              "components": [
                {
                  "internalType": "string",
                  "name": "name",
                  "type": "string"
                },
                {
                  "internalType": "string",
                  "name": "description",
                  "type": "string"
                }
              ],
              "internalType": "struct PokemonFactory.Ability[]",
              "name": "abilities",
              "type": "tuple[]"
            },
            {
              "internalType": "string[]",
              "name": "types",
              "type": "string[]"
            },
            {
              "internalType": "string[]",
              "name": "weaknesses",
              "type": "string[]"
            }
          ],
          "internalType": "struct PokemonFactory.Pokemon[]",
          "name": "",
          "type": "tuple[]"
        }
      ],
      "stateMutability": "view",
      "type": "function"
    },
    {
      "inputs": [
        {
          "internalType": "string",
          "name": "_type",
          "type": "string"
        }
      ],
      "name": "getWeaknessesByType",
      "outputs": [
        {
          "internalType": "string[]",
          "name": "",
          "type": "string[]"
        }
      ],
      "stateMutability": "view",
      "type": "function"
    },
    {
      "inputs": [
        {
          "internalType": "uint256",
          "name": "",
          "type": "uint256"
        }
      ],
      "name": "pokemonToOwner",
      "outputs": [
        {
          "internalType": "address",
          "name": "",
          "type": "address"
        }
      ],
      "stateMutability": "view",
      "type": "function"
    },
    {
      "inputs": [
        {
          "internalType": "uint256",
          "name": "",
          "type": "uint256"
        }
      ],
      "name": "pokemons",
      "outputs": [
        {
          "internalType": "uint256",
          "name": "id",
          "type": "uint256"
        },
        {
          "internalType": "string",
          "name": "name",
          "type": "string"
        },
        {
          "internalType": "string",
          "name": "image",
          "type": "string"
        }
      ],
      "stateMutability": "view",
      "type": "function"
    }
  ],
  "transactionHash": "0x353430ef7c2018b70678797c7d7627b25ead1f21047559d09e453156cbd054bc",
  "args": [],
  "numDeployments": 1,
  "solcInputHash": "e8a77429d78db39b26ef17255ca063ec",
  "bytecode": "0x608060405234801561001057600080fd5b50612b1b806100206000396000f3fe608060405234801561001057600080fd5b50600436106100885760003560e01c80635e9167901161005b5780635e916790146101155780637b4792fe14610133578063858310791461014f578063d9eda1861461018157610088565b806309dddcf01461008d57806319f00e8b146100ab5780632f7467b3146100c75780634dd2f530146100f7575b600080fd5b6100956101b1565b6040516100a29190612460565b60405180910390f35b6100c560048036038101906100c09190611b22565b61028a565b005b6100e160048036038101906100dc9190611be7565b610302565b6040516100ee9190612445565b60405180910390f35b6100ff610335565b60405161010c9190612482565b60405180910390f35b61011d610834565b60405161012a9190612482565b60405180910390f35b61014d60048036038101906101489190611c14565b610cf6565b005b61016960048036038101906101649190611be7565b611343565b60405161017893929190612504565b60405180910390f35b61019b60048036038101906101969190611b9e565b61148d565b6040516101a89190612460565b60405180910390f35b60606001805480602002602001604051908101604052809291908181526020016000905b828210156102815783829060005260206000200180546101f49061283a565b80601f01602080910402602001604051908101604052809291908181526020018280546102209061283a565b801561026d5780601f106102425761010080835404028352916020019161026d565b820191906000526020600020905b81548152906001019060200180831161025057829003601f168201915b5050505050815260200190600101906101d5565b50505050905090565b60018383909180600181540180825580915050600190039060005260206000200160009091929091929091929091925091906102c7929190611584565b5080600584846040516102db9291906123fe565b908152602001604051809103902090805190602001906102fc92919061160a565b50505050565b60026020528060005260406000206000915054906101000a900473ffffffffffffffffffffffffffffffffffffffff1681565b6060600360003373ffffffffffffffffffffffffffffffffffffffff1673ffffffffffffffffffffffffffffffffffffffff168152602001908152602001600020805480602002602001604051908101604052809291908181526020016000905b8282101561082b57838290600052602060002090600602016040518060c0016040529081600082015481526020016001820180546103d39061283a565b80601f01602080910402602001604051908101604052809291908181526020018280546103ff9061283a565b801561044c5780601f106104215761010080835404028352916020019161044c565b820191906000526020600020905b81548152906001019060200180831161042f57829003601f168201915b505050505081526020016002820180546104659061283a565b80601f01602080910402602001604051908101604052809291908181526020018280546104919061283a565b80156104de5780601f106104b3576101008083540402835291602001916104de565b820191906000526020600020905b8154815290600101906020018083116104c157829003601f168201915b5050505050815260200160038201805480602002602001604051908101604052809291908181526020016000905b82821015610662578382906000526020600020906002020160405180604001604052908160008201805461053f9061283a565b80601f016020809104026020016040519081016040528092919081815260200182805461056b9061283a565b80156105b85780601f1061058d576101008083540402835291602001916105b8565b820191906000526020600020905b81548152906001019060200180831161059b57829003601f168201915b505050505081526020016001820180546105d19061283a565b80601f01602080910402602001604051908101604052809291908181526020018280546105fd9061283a565b801561064a5780601f1061061f5761010080835404028352916020019161064a565b820191906000526020600020905b81548152906001019060200180831161062d57829003601f168201915b5050505050815250508152602001906001019061050c565b50505050815260200160048201805480602002602001604051908101604052809291908181526020016000905b8282101561073b5783829060005260206000200180546106ae9061283a565b80601f01602080910402602001604051908101604052809291908181526020018280546106da9061283a565b80156107275780601f106106fc57610100808354040283529160200191610727565b820191906000526020600020905b81548152906001019060200180831161070a57829003601f168201915b50505050508152602001906001019061068f565b50505050815260200160058201805480602002602001604051908101604052809291908181526020016000905b828210156108145783829060005260206000200180546107879061283a565b80601f01602080910402602001604051908101604052809291908181526020018280546107b39061283a565b80156108005780601f106107d557610100808354040283529160200191610800565b820191906000526020600020905b8154815290600101906020018083116107e357829003601f168201915b505050505081526020019060010190610768565b505050508152505081526020019060010190610396565b50505050905090565b60606000805480602002602001604051908101604052809291908181526020016000905b82821015610ced57838290600052602060002090600602016040518060c0016040529081600082015481526020016001820180546108959061283a565b80601f01602080910402602001604051908101604052809291908181526020018280546108c19061283a565b801561090e5780601f106108e35761010080835404028352916020019161090e565b820191906000526020600020905b8154815290600101906020018083116108f157829003601f168201915b505050505081526020016002820180546109279061283a565b80601f01602080910402602001604051908101604052809291908181526020018280546109539061283a565b80156109a05780601f10610975576101008083540402835291602001916109a0565b820191906000526020600020905b81548152906001019060200180831161098357829003601f168201915b5050505050815260200160038201805480602002602001604051908101604052809291908181526020016000905b82821015610b245783829060005260206000209060020201604051806040016040529081600082018054610a019061283a565b80601f0160208091040260200160405190810160405280929190818152602001828054610a2d9061283a565b8015610a7a5780601f10610a4f57610100808354040283529160200191610a7a565b820191906000526020600020905b815481529060010190602001808311610a5d57829003601f168201915b50505050508152602001600182018054610a939061283a565b80601f0160208091040260200160405190810160405280929190818152602001828054610abf9061283a565b8015610b0c5780601f10610ae157610100808354040283529160200191610b0c565b820191906000526020600020905b815481529060010190602001808311610aef57829003601f168201915b505050505081525050815260200190600101906109ce565b50505050815260200160048201805480602002602001604051908101604052809291908181526020016000905b82821015610bfd578382906000526020600020018054610b709061283a565b80601f0160208091040260200160405190810160405280929190818152602001828054610b9c9061283a565b8015610be95780601f10610bbe57610100808354040283529160200191610be9565b820191906000526020600020905b815481529060010190602001808311610bcc57829003601f168201915b505050505081526020019060010190610b51565b50505050815260200160058201805480602002602001604051908101604052809291908181526020016000905b82821015610cd6578382906000526020600020018054610c499061283a565b80601f0160208091040260200160405190810160405280929190818152602001828054610c759061283a565b8015610cc25780601f10610c9757610100808354040283529160200191610cc2565b820191906000526020600020905b815481529060010190602001808311610ca557829003601f168201915b505050505081526020019060010190610c2a565b505050508152505081526020019060010190610858565b50505050905090565b89898960008311610d3c576040517f08c379a0000000000000000000000000000000000000000000000000000000008152600401610d33906124e4565b60405180910390fd5b60028282905011610d82576040517f08c379a0000000000000000000000000000000000000000000000000000000008152600401610d79906124a4565b60405180910390fd5b600060018054905011610dca576040517f08c379a0000000000000000000000000000000000000000000000000000000008152600401610dc1906124c4565b60405180910390fd5b6000808054905090506000600181600181540180825580915050039060005260206000209050508d60008281548110610e0657610e0561295e565b5b9060005260206000209060060201600001819055508c8c60008381548110610e3157610e3061295e565b5b90600052602060002090600602016001019190610e4f929190611584565b508a8a60008381548110610e6657610e6561295e565b5b90600052602060002090600602016002019190610e84929190611584565b5060005b898990508110156110135760008281548110610ea757610ea661295e565b5b906000526020600020906006020160030160405180604001604052808c8c85818110610ed657610ed561295e565b5b9050602002810190610ee89190612549565b8080601f016020809104026020016040519081016040528093929190818152602001838380828437600081840152601f19601f8201169050808301925050505050505081526020018a8a85818110610f4357610f4261295e565b5b9050602002810190610f559190612549565b8080601f016020809104026020016040519081016040528093929190818152602001838380828437600081840152601f19601f8201169050808301925050505050505081525090806001815401808255809150506001900390600052602060002090600202016000909190919091506000820151816000019080519060200190610fe092919061166a565b506020820151816001019080519060200190610ffd92919061166a565b505050808061100b906128b7565b915050610e88565b5084600082815481106110295761102861295e565b5b9060005260206000209060060201600401908051906020019061104d92919061160a565b5060005b85518110156111b457600060058783815181106110715761107061295e565b5b60200260200101516040516110869190612417565b9081526020016040518091039020805480602002602001604051908101604052809291908181526020016000905b828210156111605783829060005260206000200180546110d39061283a565b80601f01602080910402602001604051908101604052809291908181526020018280546110ff9061283a565b801561114c5780601f106111215761010080835404028352916020019161114c565b820191906000526020600020905b81548152906001019060200180831161112f57829003601f168201915b5050505050815260200190600101906110b4565b505050509050806000848154811061117b5761117a61295e565b5b9060005260206000209060060201600501908051906020019061119f92919061160a565b505080806111ac906128b7565b915050611051565b50600360003373ffffffffffffffffffffffffffffffffffffffff1673ffffffffffffffffffffffffffffffffffffffff168152602001908152602001600020600082815481106112085761120761295e565b5b9060005260206000209060060201908060018154018082558091505060019003906000526020600020906006020160009091909190915060008201548160000155600182018160010190805461125d9061283a565b6112689291906116f0565b50600282018160020190805461127d9061283a565b6112889291906116f0565b50600382018160030190805461129f92919061177d565b5060048201816004019080546112b6929190611815565b5060058201816005019080546112cd929190611815565b505050600081815481106112e4576112e361295e565b5b90600052602060002090600602016040516112ff919061242e565b60405180910390207f0a75f64310e41c23b96c515a078be578b9890b603a5c6959c7fe05adf0fa81a860405160405180910390a25050505050505050505050505050565b6000818154811061135357600080fd5b906000526020600020906006020160009150905080600001549080600101805461137c9061283a565b80601f01602080910402602001604051908101604052809291908181526020018280546113a89061283a565b80156113f55780601f106113ca576101008083540402835291602001916113f5565b820191906000526020600020905b8154815290600101906020018083116113d857829003601f168201915b50505050509080600201805461140a9061283a565b80601f01602080910402602001604051908101604052809291908181526020018280546114369061283a565b80156114835780601f1061145857610100808354040283529160200191611483565b820191906000526020600020905b81548152906001019060200180831161146657829003601f168201915b5050505050905083565b606060058260405161149f9190612417565b9081526020016040518091039020805480602002602001604051908101604052809291908181526020016000905b828210156115795783829060005260206000200180546114ec9061283a565b80601f01602080910402602001604051908101604052809291908181526020018280546115189061283a565b80156115655780601f1061153a57610100808354040283529160200191611565565b820191906000526020600020905b81548152906001019060200180831161154857829003601f168201915b5050505050815260200190600101906114cd565b505050509050919050565b8280546115909061283a565b90600052602060002090601f0160209004810192826115b257600085556115f9565b82601f106115cb57803560ff19168380011785556115f9565b828001600101855582156115f9579182015b828111156115f85782358255916020019190600101906115dd565b5b509050611606919061187d565b5090565b828054828255906000526020600020908101928215611659579160200282015b8281111561165857825182908051906020019061164892919061166a565b509160200191906001019061162a565b5b509050611666919061189a565b5090565b8280546116769061283a565b90600052602060002090601f01602090048101928261169857600085556116df565b82601f106116b157805160ff19168380011785556116df565b828001600101855582156116df579182015b828111156116de5782518255916020019190600101906116c3565b5b5090506116ec919061187d565b5090565b8280546116fc9061283a565b90600052602060002090601f01602090048101928261171e576000855561176c565b82601f1061172f578054855561176c565b8280016001018555821561176c57600052602060002091601f016020900482015b8281111561176b578254825591600101919060010190611750565b5b509050611779919061187d565b5090565b8280548282559060005260206000209060020281019282156118045760005260206000209160020282015b8281111561180357828260008201816000019080546117c69061283a565b6117d19291906116f0565b5060018201816001019080546117e69061283a565b6117f19291906116f0565b505050916002019190600201906117a8565b5b50905061181191906118be565b5090565b82805482825590600052602060002090810192821561186c5760005260206000209182015b8281111561186b5782829080546118509061283a565b61185b9291906116f0565b509160010191906001019061183a565b5b509050611879919061189a565b5090565b5b8082111561189657600081600090555060010161187e565b5090565b5b808211156118ba57600081816118b191906118f5565b5060010161189b565b5090565b5b808211156118f157600080820160006118d891906118f5565b6001820160006118e891906118f5565b506002016118bf565b5090565b5080546119019061283a565b6000825580601f106119135750611932565b601f016020900490600052602060002090810190611931919061187d565b5b50565b6000611948611943846125d1565b6125ac565b9050808382526020820190508285602086028201111561196b5761196a6129d0565b5b60005b858110156119b957813567ffffffffffffffff811115611991576119906129c1565b5b80860161199e8982611adf565b8552602085019450602084019350505060018101905061196e565b5050509392505050565b60006119d66119d1846125fd565b6125ac565b9050828152602081018484840111156119f2576119f16129da565b5b6119fd8482856127f8565b509392505050565b60008083601f840112611a1b57611a1a6129c1565b5b8235905067ffffffffffffffff811115611a3857611a376129bc565b5b602083019150836020820283011115611a5457611a536129d0565b5b9250929050565b600082601f830112611a7057611a6f6129c1565b5b8135611a80848260208601611935565b91505092915050565b60008083601f840112611a9f57611a9e6129c1565b5b8235905067ffffffffffffffff811115611abc57611abb6129bc565b5b602083019150836001820283011115611ad857611ad76129d0565b5b9250929050565b600082601f830112611af457611af36129c1565b5b8135611b048482602086016119c3565b91505092915050565b600081359050611b1c81612ace565b92915050565b600080600060408486031215611b3b57611b3a6129e4565b5b600084013567ffffffffffffffff811115611b5957611b586129df565b5b611b6586828701611a89565b9350935050602084013567ffffffffffffffff811115611b8857611b876129df565b5b611b9486828701611a5b565b9150509250925092565b600060208284031215611bb457611bb36129e4565b5b600082013567ffffffffffffffff811115611bd257611bd16129df565b5b611bde84828501611adf565b91505092915050565b600060208284031215611bfd57611bfc6129e4565b5b6000611c0b84828501611b0d565b91505092915050565b60008060008060008060008060008060c08b8d031215611c3757611c366129e4565b5b6000611c458d828e01611b0d565b9a505060208b013567ffffffffffffffff811115611c6657611c656129df565b5b611c728d828e01611a89565b995099505060408b013567ffffffffffffffff811115611c9557611c946129df565b5b611ca18d828e01611a89565b975097505060608b013567ffffffffffffffff811115611cc457611cc36129df565b5b611cd08d828e01611a05565b955095505060808b013567ffffffffffffffff811115611cf357611cf26129df565b5b611cff8d828e01611a05565b935093505060a08b013567ffffffffffffffff811115611d2257611d216129df565b5b611d2e8d828e01611a5b565b9150509295989b9194979a5092959850565b6000611d4c8383611edd565b905092915050565b6000611d608383611faf565b905092915050565b6000611d7483836120a6565b905092915050565b6000611d888383612149565b905092915050565b6000611d9c8383612232565b905092915050565b6000611db08383612276565b905092915050565b6000611dc483836122a9565b905092915050565b6000611dd883836123ef565b60208301905092915050565b611ded816127bc565b82525050565b6000611dfe8261269d565b611e088185612720565b935083602082028501611e1a8561262e565b8060005b85811015611e565784840389528151611e378582611d68565b9450611e42836126df565b925060208a01995050600181019050611e1e565b50829750879550505050505092915050565b6000611e738261269d565b611e7d8185612731565b935083602082028501611e8f8561262e565b8060005b85811015611ecb5784840389528151611eac8582611d68565b9450611eb7836126df565b925060208a01995050600181019050611e93565b50829750879550505050505092915050565b6000611ee8826126a8565b611ef28185612742565b9350611efd8361263e565b8060005b83811015611f2d5781611f148882611d7c565b9750611f1f836126ec565b925050600181019050611f01565b5085935050505092915050565b6000611f45826126b3565b611f4f818561274d565b935083602082028501611f6185612653565b8060005b85811015611f9d5784840389528151611f7e8582611d90565b9450611f89836126f9565b925060208a01995050600181019050611f65565b50829750879550505050505092915050565b6000611fba826126be565b611fc4818561275e565b9350611fcf83612663565b8060005b83811015611fff5781611fe68882611da4565b9750611ff183612706565b925050600181019050611fd3565b5085935050505092915050565b6000612017826126c9565b6120218185612769565b93508360208202850161203385612678565b8060005b8581101561206f57848403895281516120508582611db8565b945061205b83612713565b925060208a01995050600181019050612037565b50829750879550505050505092915050565b600061208d83856127a7565b935061209a8385846127f8565b82840190509392505050565b60006120b1826126d4565b6120bb818561277a565b93506120cb818560208601612807565b6120d4816129e9565b840191505092915050565b60006120ea826126d4565b6120f4818561278b565b9350612104818560208601612807565b61210d816129e9565b840191505092915050565b6000612123826126d4565b61212d81856127a7565b935061213d818560208601612807565b80840191505092915050565b600081546121568161283a565b612160818661279c565b9450600182166000811461217b576001811461218d576121c0565b60ff19831686526020860193506121c0565b61219685612688565b60005b838110156121b857815481890152600182019150602081019050612199565b808801955050505b50505092915050565b60006121d660268361278b565b91506121e182612a07565b604082019050919050565b60006121f9601e8361278b565b915061220482612a56565b602082019050919050565b600061221c602d8361278b565b915061222782612a7f565b604082019050919050565b6000604083016000830151848203600086015261224f82826120a6565b9150506020830151848203602086015261226982826120a6565b9150508091505092915050565b6000808301600080840161228a8682611d7c565b9550506001840161229b8682611d7c565b955050849250505092915050565b600060c0830160008301516122c160008601826123d1565b50602083015184820360208601526122d982826120a6565b915050604083015184820360408601526122f382826120a6565b9150506060830151848203606086015261230d8282611f3a565b915050608083015184820360808601526123278282611df3565b91505060a083015184820360a08601526123418282611df3565b9150508091505092915050565b600080830160008084015490506123648161286c565b61236e8682611dcc565b9550506001840161237f8682611d7c565b955050600284016123908682611d7c565b955050600384016123a18682611d54565b955050600484016123b28682611d40565b955050600584016123c38682611d40565b955050849250505092915050565b6123da816127ee565b82525050565b6123e9816127ee565b82525050565b6123f8816127ee565b82525050565b600061240b828486612081565b91508190509392505050565b60006124238284612118565b915081905092915050565b600061243a828461234e565b915081905092915050565b600060208201905061245a6000830184611de4565b92915050565b6000602082019050818103600083015261247a8184611e68565b905092915050565b6000602082019050818103600083015261249c818461200c565b905092915050565b600060208201905081810360008301526124bd816121c9565b9050919050565b600060208201905081810360008301526124dd816121ec565b9050919050565b600060208201905081810360008301526124fd8161220f565b9050919050565b600060608201905061251960008301866123e0565b818103602083015261252b81856120df565b9050818103604083015261253f81846120df565b9050949350505050565b60008083356001602003843603038112612566576125656129cb565b5b80840192508235915067ffffffffffffffff821115612588576125876129c6565b5b6020830192506001820236038313156125a4576125a36129d5565b5b509250929050565b60006125b66125c7565b90506125c28282612886565b919050565b6000604051905090565b600067ffffffffffffffff8211156125ec576125eb61298d565b5b602082029050602081019050919050565b600067ffffffffffffffff8211156126185761261761298d565b5b612621826129e9565b9050602081019050919050565b6000819050602082019050919050565b60008190508160005260206000209050919050565b6000819050602082019050919050565b60008190508160005260206000209050919050565b6000819050602082019050919050565b60008190508160005260206000209050919050565b600081519050919050565b600081549050919050565b600081519050919050565b600081549050919050565b600081519050919050565b600081519050919050565b6000602082019050919050565b6000600182019050919050565b6000602082019050919050565b6000600282019050919050565b6000602082019050919050565b600082825260208201905092915050565b600082825260208201905092915050565b600081905092915050565b600082825260208201905092915050565b600081905092915050565b600082825260208201905092915050565b600082825260208201905092915050565b600082825260208201905092915050565b600081905092915050565b600081905092915050565b6000819050919050565b60006127c7826127ce565b9050919050565b600073ffffffffffffffffffffffffffffffffffffffff82169050919050565b6000819050919050565b82818337600083830152505050565b60005b8381101561282557808201518184015260208101905061280a565b83811115612834576000848401525b50505050565b6000600282049050600182168061285257607f821691505b602082108114156128665761286561292f565b5b50919050565b600061287f61287a836129fa565b6127b2565b9050919050565b61288f826129e9565b810181811067ffffffffffffffff821117156128ae576128ad61298d565b5b80604052505050565b60006128c2826127ee565b91507fffffffffffffffffffffffffffffffffffffffffffffffffffffffffffffffff8214156128f5576128f4612900565b5b600182019050919050565b7f4e487b7100000000000000000000000000000000000000000000000000000000600052601160045260246000fd5b7f4e487b7100000000000000000000000000000000000000000000000000000000600052602260045260246000fd5b7f4e487b7100000000000000000000000000000000000000000000000000000000600052603260045260246000fd5b7f4e487b7100000000000000000000000000000000000000000000000000000000600052604160045260246000fd5b600080fd5b600080fd5b600080fd5b600080fd5b600080fd5b600080fd5b600080fd5b600080fd5b600080fd5b6000601f19601f8301169050919050565b60008160001c9050919050565b7f456c206e6f6d627265206465626520736572206d61796f72206120322063617260008201527f6174657265730000000000000000000000000000000000000000000000000000602082015250565b7f4465626520696e736572746172207469706f7320646520706f6b656d6f6e0000600082015250565b7f446562652073656c656363696f6e617220756e2069642076616c69646f20706160008201527f726120656c20706f6b656d6f6e00000000000000000000000000000000000000602082015250565b612ad7816127ee565b8114612ae257600080fd5b5056fea2646970667358221220b11c41bbefebd313446f4ebc57b6aaa45ea4fc08c69518fe8d0123d2461d8c3264736f6c63430008070033",
  "devdoc": {
    "kind": "dev",
    "methods": {},
    "version": 1
  },
  "userdoc": {
    "kind": "user",
    "methods": {},
    "version": 1
  },
  "storageLayout": {
    "storage": [
      {
        "astId": 27,
        "contract": "contracts/PokemonFactory.sol:PokemonFactory",
        "label": "pokemons",
        "offset": 0,
        "slot": "0",
        "type": "t_array(t_struct(Pokemon)18_storage)dyn_storage"
      },
      {
        "astId": 30,
        "contract": "contracts/PokemonFactory.sol:PokemonFactory",
        "label": "types",
        "offset": 0,
        "slot": "1",
        "type": "t_array(t_string_storage)dyn_storage"
      },
      {
        "astId": 34,
        "contract": "contracts/PokemonFactory.sol:PokemonFactory",
        "label": "pokemonToOwner",
        "offset": 0,
        "slot": "2",
        "type": "t_mapping(t_uint256,t_address)"
      },
      {
        "astId": 40,
        "contract": "contracts/PokemonFactory.sol:PokemonFactory",
        "label": "pokedex",
        "offset": 0,
        "slot": "3",
        "type": "t_mapping(t_address,t_array(t_struct(Pokemon)18_storage)dyn_storage)"
      },
      {
        "astId": 44,
        "contract": "contracts/PokemonFactory.sol:PokemonFactory",
        "label": "ownerPokemonCount",
        "offset": 0,
        "slot": "4",
        "type": "t_mapping(t_address,t_uint256)"
      },
      {
        "astId": 49,
        "contract": "contracts/PokemonFactory.sol:PokemonFactory",
        "label": "typesToWeaknesses",
        "offset": 0,
        "slot": "5",
        "type": "t_mapping(t_string_memory_ptr,t_array(t_string_storage)dyn_storage)"
      }
    ],
    "types": {
      "t_address": {
        "encoding": "inplace",
        "label": "address",
        "numberOfBytes": "20"
      },
      "t_array(t_string_storage)dyn_storage": {
        "base": "t_string_storage",
        "encoding": "dynamic_array",
        "label": "string[]",
        "numberOfBytes": "32"
      },
      "t_array(t_struct(Ability)23_storage)dyn_storage": {
        "base": "t_struct(Ability)23_storage",
        "encoding": "dynamic_array",
        "label": "struct PokemonFactory.Ability[]",
        "numberOfBytes": "32"
      },
      "t_array(t_struct(Pokemon)18_storage)dyn_storage": {
        "base": "t_struct(Pokemon)18_storage",
        "encoding": "dynamic_array",
        "label": "struct PokemonFactory.Pokemon[]",
        "numberOfBytes": "32"
      },
      "t_mapping(t_address,t_array(t_struct(Pokemon)18_storage)dyn_storage)": {
        "encoding": "mapping",
        "key": "t_address",
        "label": "mapping(address => struct PokemonFactory.Pokemon[])",
        "numberOfBytes": "32",
        "value": "t_array(t_struct(Pokemon)18_storage)dyn_storage"
      },
      "t_mapping(t_address,t_uint256)": {
        "encoding": "mapping",
        "key": "t_address",
        "label": "mapping(address => uint256)",
        "numberOfBytes": "32",
        "value": "t_uint256"
      },
      "t_mapping(t_string_memory_ptr,t_array(t_string_storage)dyn_storage)": {
        "encoding": "mapping",
        "key": "t_string_memory_ptr",
        "label": "mapping(string => string[])",
        "numberOfBytes": "32",
        "value": "t_array(t_string_storage)dyn_storage"
      },
      "t_mapping(t_uint256,t_address)": {
        "encoding": "mapping",
        "key": "t_uint256",
        "label": "mapping(uint256 => address)",
        "numberOfBytes": "32",
        "value": "t_address"
      },
      "t_string_memory_ptr": {
        "encoding": "bytes",
        "label": "string",
        "numberOfBytes": "32"
      },
      "t_string_storage": {
        "encoding": "bytes",
        "label": "string",
        "numberOfBytes": "32"
      },
      "t_struct(Ability)23_storage": {
        "encoding": "inplace",
        "label": "struct PokemonFactory.Ability",
        "members": [
          {
            "astId": 20,
            "contract": "contracts/PokemonFactory.sol:PokemonFactory",
            "label": "name",
            "offset": 0,
            "slot": "0",
            "type": "t_string_storage"
          },
          {
            "astId": 22,
            "contract": "contracts/PokemonFactory.sol:PokemonFactory",
            "label": "description",
            "offset": 0,
            "slot": "1",
            "type": "t_string_storage"
          }
        ],
        "numberOfBytes": "64"
      },
      "t_struct(Pokemon)18_storage": {
        "encoding": "inplace",
        "label": "struct PokemonFactory.Pokemon",
        "members": [
          {
            "astId": 3,
            "contract": "contracts/PokemonFactory.sol:PokemonFactory",
            "label": "id",
            "offset": 0,
            "slot": "0",
            "type": "t_uint256"
          },
          {
            "astId": 5,
            "contract": "contracts/PokemonFactory.sol:PokemonFactory",
            "label": "name",
            "offset": 0,
            "slot": "1",
            "type": "t_string_storage"
          },
          {
            "astId": 7,
            "contract": "contracts/PokemonFactory.sol:PokemonFactory",
            "label": "image",
            "offset": 0,
            "slot": "2",
            "type": "t_string_storage"
          },
          {
            "astId": 11,
            "contract": "contracts/PokemonFactory.sol:PokemonFactory",
            "label": "abilities",
            "offset": 0,
            "slot": "3",
            "type": "t_array(t_struct(Ability)23_storage)dyn_storage"
          },
          {
            "astId": 14,
            "contract": "contracts/PokemonFactory.sol:PokemonFactory",
            "label": "types",
            "offset": 0,
            "slot": "4",
            "type": "t_array(t_string_storage)dyn_storage"
          },
          {
            "astId": 17,
            "contract": "contracts/PokemonFactory.sol:PokemonFactory",
            "label": "weaknesses",
            "offset": 0,
            "slot": "5",
            "type": "t_array(t_string_storage)dyn_storage"
          }
        ],
        "numberOfBytes": "192"
      },
      "t_uint256": {
        "encoding": "inplace",
        "label": "uint256",
        "numberOfBytes": "32"
      }
    }
  }
}